{
  "contractName": "KVStore",
  "abi": [
    {
      "constant": true,
      "inputs": [
        {
          "name": "key",
          "type": "address"
        }
      ],
      "name": "get",
      "outputs": [
        {
          "name": "",
          "type": "string"
        }
      ],
      "payable": false,
      "stateMutability": "view",
      "type": "function"
    },
    {
      "constant": false,
      "inputs": [
        {
          "name": "value",
          "type": "string"
        }
      ],
      "name": "set",
      "outputs": [],
      "payable": false,
      "stateMutability": "nonpayable",
      "type": "function"
    }
  ],
  "bytecode": "0x6060604052341561000f57600080fd5b6103818061001e6000396000f30060606040526004361061004c576000357c0100000000000000000000000000000000000000000000000000000000900463ffffffff1680634ed3885e14610051578063c2bc2efc146100ae575b600080fd5b341561005c57600080fd5b6100ac600480803590602001908201803590602001908080601f01602080910402602001604051908101604052809392919081815260200183838082843782019150505050505091905050610160565b005b34156100b957600080fd5b6100e5600480803573ffffffffffffffffffffffffffffffffffffffff169060200190919050506101b6565b6040518080602001828103825283818151815260200191508051906020019080838360005b8381101561012557808201518184015260208101905061010a565b50505050905090810190601f1680156101525780820380516001836020036101000a031916815260200191505b509250505060405180910390f35b806000803373ffffffffffffffffffffffffffffffffffffffff1673ffffffffffffffffffffffffffffffffffffffff16815260200190815260200160002090805190602001906101b292919061029c565b5050565b6101be61031c565b6000808373ffffffffffffffffffffffffffffffffffffffff1673ffffffffffffffffffffffffffffffffffffffff1681526020019081526020016000208054600181600116156101000203166002900480601f0160208091040260200160405190810160405280929190818152602001828054600181600116156101000203166002900480156102905780601f1061026557610100808354040283529160200191610290565b820191906000526020600020905b81548152906001019060200180831161027357829003601f168201915b50505050509050919050565b828054600181600116156101000203166002900490600052602060002090601f016020900481019282601f106102dd57805160ff191683800117855561030b565b8280016001018555821561030b579182015b8281111561030a5782518255916020019190600101906102ef565b5b5090506103189190610330565b5090565b602060405190810160405280600081525090565b61035291905b8082111561034e576000816000905550600101610336565b5090565b905600a165627a7a72305820e0b746e22666c2887ba71a38f8760bdb9b4d5d187653811576fed9edd4fbf4c70029",
  "source": "pragma solidity ^0.4.18;\n\ncontract KVStore {\n\n  mapping(address => string) store;\n\n  function get(address key) public constant returns(string) {\n    return store[key];\n  }\n  function set(string value) public {\n    store[msg.sender] = value;\n  }\n}\n",
  "sourcePath": "/Users/willhay/kvstore/contracts/KVStore.sol",
  "compiler": {
    "name": "solc",
    "version": "0.4.19+commit.c4cbbb05.Emscripten.clang"
  },
  "schemaVersion": "2.0.0",
  "updatedAt": "2018-03-09T04:48:02.686Z"
}