{
  "contractName": "KVStore",
  "abi": [
    {
      "constant": true,
      "inputs": [
        {
          "name": "acct",
          "type": "address"
        },
        {
          "name": "key",
          "type": "string"
        }
      ],
      "name": "get",
      "outputs": [
        {
          "name": "",
          "type": "string"
        }
      ],
      "payable": false,
      "stateMutability": "view",
      "type": "function"
    },
    {
      "constant": false,
      "inputs": [
        {
          "name": "key",
          "type": "string"
        },
        {
          "name": "value",
          "type": "string"
        }
      ],
      "name": "set",
      "outputs": [],
      "payable": false,
      "stateMutability": "nonpayable",
      "type": "function"
    }
  ],
  "bytecode": "0x6060604052341561000f57600080fd5b6104db8061001e6000396000f30060606040526004361061004c576000357c0100000000000000000000000000000000000000000000000000000000900463ffffffff168063e942b51614610051578063fc2525ab146100f1575b600080fd5b341561005c57600080fd5b6100ef600480803590602001908201803590602001908080601f0160208091040260200160405190810160405280939291908181526020018383808284378201915050505050509190803590602001908201803590602001908080601f016020809104026020016040519081016040528093929190818152602001838380828437820191505050505050919050506101e6565b005b34156100fc57600080fd5b61016b600480803573ffffffffffffffffffffffffffffffffffffffff1690602001909190803590602001908201803590602001908080601f016020809104026020016040519081016040528093929190818152602001838380828437820191505050505050919050506102a6565b6040518080602001828103825283818151815260200191508051906020019080838360005b838110156101ab578082015181840152602081019050610190565b50505050905090810190601f1680156101d85780820380516001836020036101000a031916815260200191505b509250505060405180910390f35b806000803373ffffffffffffffffffffffffffffffffffffffff1673ffffffffffffffffffffffffffffffffffffffff168152602001908152602001600020836040518082805190602001908083835b60208310151561025b5780518252602082019150602081019050602083039250610236565b6001836020036101000a038019825116818451168082178552505050505050905001915050908152602001604051809103902090805190602001906102a19291906103f6565b505050565b6102ae610476565b6000808473ffffffffffffffffffffffffffffffffffffffff1673ffffffffffffffffffffffffffffffffffffffff168152602001908152602001600020826040518082805190602001908083835b60208310151561032257805182526020820191506020810190506020830392506102fd565b6001836020036101000a03801982511681845116808217855250505050505090500191505090815260200160405180910390208054600181600116156101000203166002900480601f0160208091040260200160405190810160405280929190818152602001828054600181600116156101000203166002900480156103e95780601f106103be576101008083540402835291602001916103e9565b820191906000526020600020905b8154815290600101906020018083116103cc57829003601f168201915b5050505050905092915050565b828054600181600116156101000203166002900490600052602060002090601f016020900481019282601f1061043757805160ff1916838001178555610465565b82800160010185558215610465579182015b82811115610464578251825591602001919060010190610449565b5b509050610472919061048a565b5090565b602060405190810160405280600081525090565b6104ac91905b808211156104a8576000816000905550600101610490565b5090565b905600a165627a7a72305820149a3ec6ab8fb267fdbc6101dd5f256fcd9b8e4caf0e8d0222f5eb93433da3850029",
  "source": "pragma solidity ^0.4.18;\n\ncontract KVStore {\n\n  mapping(address => mapping(string => string)) store;\n\n  function get(address acct, string key) public constant returns(string) {\n    return store[acct][key];\n  }\n  function set(string key, string value) public {\n    store[msg.sender][key] = value;\n  }\n}\n",
  "sourcePath": "/Users/willhay/kvstore/contracts/KVStore.sol",
  "compiler": {
    "name": "solc",
    "version": "0.4.19+commit.c4cbbb05.Emscripten.clang"
  },
  "schemaVersion": "2.0.0",
  "updatedAt": "2018-03-13T05:12:04.087Z"
}